:020000040800F2
:10000000E0070020CD010008A71C000853160008D7
:10001000A51C0008D3040008611F000800000000B0
:10002000000000000000000000000000611E000849
:100030007D05000800000000A91C0008631E0008E0
:10004000E7010008E7010008E7010008E7010008F0
:10005000E7010008E7010008E7010008E7010008E0
:10006000E7010008E7010008E7010008E7010008D0
:10007000E7010008E7010008E7010008E7010008C0
:10008000E7010008E7010008E7010008E7010008B0
:10009000E7010008E7010008E7010008E7010008A0
:1000A000E7010008E7010008E7010008E701000890
:1000B000E7010008E7010008E7010008E701000880
:1000C000E7010008E7010008E7010008E701000870
:1000D000E7010008E7010008E7010008E701000860
:1000E000E7010008E7010008E7010008E701000850
:1000F000E7010008E7010008E7010008E701000840
:10010000E7010008E7010008E7010008E70100082F
:10011000E7010008E7010008C91E0008E701000820
:10012000E7010008E7010008E7010008E70100080F
:1001300000F002F800F03AF80AA090E8000C8244BF
:100140008344AAF10107DA4501D100F02FF8AFF29C
:10015000090EBAE80F0013F0010F18BFFB1A43F0A5
:1001600001031847D4600000F4600000103A24BF77
:1001700078C878C1FAD8520724BF30C830C144BF0C
:1001800004680C607047000000230024002500264E
:10019000103A28BF78C1FBD8520728BF30C148BFEA
:1001A0000B6070471FB51FBD10B510BD00F05CF9A6
:1001B0001146FFF7F7FF03F0F3F900F07AF903B403
:1001C000FFF7F2FF03BC00F07DF90000094880470B
:1001D00009480047FEE7FEE7FEE7FEE7FEE7FEE729
:1001E000FEE7FEE7FEE7FEE704480549054A064B41
:1001F00070470000C51E000831010008E001002022
:10020000E0070020E0030020E003002010B54C10C0
:1002100084EA530404D54042C1F1000138BF491EAD
:100220001B4204D55242C3F1000338BF5B1E00F0ED
:100230006FF814F0804F04D04042C1F1000138BF84
:10024000491E14F0004F04D05242C3F1000338BFDE
:100250005B1E10BD40EA010310B59B070FD1042AB5
:100260000DD310C808C9121F9C42F8D020BA19BA81
:10027000884201D9012010BD4FF0FF3010BD1AB1E6
:10028000D30703D0521C07E0002010BD10F8013B3B
:1002900011F8014B1B1B07D110F8013B11F8014B62
:1002A0001B1B01D1921EF1D1184610BD02F0FF03B5
:1002B00043EA032242EA024200F0AEB84FF00002E5
:1002C00000B5134694469646203922BFA0E80C504C
:1002D000A0E80C50B1F12001BFF4F7AF090728BF27
:1002E000A0E80C5048BF0CC05DF804EB890028BFA3
:1002F00040F8042B08BF704748BF20F8022B11F0CC
:10030000804F18BF00F8012B704770477047704747
:1003100053EA020C00F069802DE9F04B4FF0000623
:10032000002B1FBFB3FA83F503FA05F424FA05F690
:100330005E4012BF1643B2FA82F502FA05F4C5F127
:1003400020051EBF22FA05FC44EA0C04203556EABB
:10035000044C4FEA144418BF641C4FF000084FF0DF
:100360000009904271EB030C39D3002919BFB1FA8F
:1003700081F701FA07F6B0FA80F700FA07F6C7F13D
:1003800020071EBF20FA07FC46EA0C062037B6FB02
:10039000F4FCA7EB0507103F07F01F0BCBF120067D
:1003A0000CFA0BFB2CFA06F644BFB3460026202FAE
:1003B000A4BF5E464FF0000B5BEA060C08BF4FF08F
:1003C000010B19EB0B09ABFB027C48EB0608C01BC9
:1003D00006FB02CC0BFB03CC71EB0C01C1E70B4617
:1003E000024641464846BDE8F08B13B54FF0000089
:1003F0004FF00001AFF30080BDE81C40704710B51E
:1004000000F02AF8006810BD10B5044600F024F88A
:10041000046010BD4FF000020429C0F0128010F0FB
:10042000030C3FF44DAFCCF1040CBCF1020F18BF2C
:1004300000F8012BA8BF20F8022BA1EB0C01FFF75D
:100440003FBF5FEAC17C24BF00F8012B00F8012BFD
:1004500048BF00F8012B7047004870477C0100201E
:10046000004870477C0100207546FFF7F9FFAE4653
:1004700005006946534620F00700854618B020B5B0
:10048000FFF7B2FEBDE820404FF000064FF0000736
:100490004FF000084FF0000B21F00701AC46ACE82C
:1004A000C009ACE8C009ACE8C009ACE8C0098D4699
:1004B000704710B50446AFF300802046BDE81040F9
:1004C000FFF77DBE01491820ABBEFEE72600020003
:1004D0007047FEE73EB52649642301228DE80E00F1
:1004E00013467522D02100F025FA214800786828AB
:1004F0000CD0BFF34F8F1F4801681F4A01F4E06121
:1005000011430160BFF34F8F00BFFDE703F02EF9E9
:1005100000282BD1782003F0B5FD782003F058F89F
:10052000C82003F06FFD02F045FA11482C30044654
:1005300003F012F80546E01C03F00EF845EAC0058A
:10054000A01D03F009F845EA801080B202F0F2FB2A
:1005500040F2731002F006F9C82002F053FB03F0DA
:1005600018FEBDE83E40012003F072BC3EBD000015
:10057000000000200CED00E00400FA05704772B6A0
:10058000FEE7000070B5044600F00AF90546601C5D
:1005900002D004480078044400F002F9401BA04255
:1005A000FAD370BD640000202DE9F84FDFF8C89140
:1005B0000024A9F1040B23460F2709F1040AABF12B
:1005C000040ED1E00125A54006EA0502AA4276D133
:1005D000DFF8A8C14E68A6EB0C0866452BD00DDCF1
:1005E000032E34D005DC36B3012E19D0022E2FD1C4
:1005F0001BE0112E16D0122E2AD119E0B8F5881F53
:1006000019D006DCB8F5803F15D0B8F5801F1FD192
:1006100011E0B8F5001F0ED0B8F5041F18D10AE09C
:10062000CB6815E0CB681B1D12E0CB6808330FE0E8
:10063000CB680C330CE08B682BB1012B4FF0080317
:1006400003D0456104E0042302E0056100E00023DB
:10065000FF2A01D8064601E000F104064FEA8405AE
:1006600001D9A5F12005D6F8008007FA05FC28EA93
:100670000C0803FA05F548EA0508C6F800804D683D
:10068000ED0070D53E4DAE6946F00106AE61AD6934
:1006900024F0030605F0010500953A4D06EB050C24
:1006A000DCF80850A607360F07FA06F825EA080511
:1006B000DFF8D480404503D14FF0000825E052E038
:1006C000DFF8C880404502D14FF001081DE0DFF897
:1006D000C080404502D14FF0020816E0DFF8B48038
:1006E000404502D14FF003080FE0DFF8AC804045F1
:1006F00002D14FF0040808E0DFF8A080404502D1A5
:100700004FF0050801E04FF0060808FA06F848EA3D
:100710000508CCF808804D68D9F80060ED024D4618
:1007200001D5164300E096432E604D68DAF800606C
:10073000AD02554601D5164300E096432E604D6844
:10074000DBF80060AD035D4601D5164300E096433B
:100750002E604D68DEF80060ED03754601D5164346
:1007600000E096432E60641C0A681646E2407FF45F
:1007700029AFBDE8F88F0000080401400000111007
:10078000001002400000014000080140000C014040
:10079000001001400014014000180140001C0140FD
:1007A00001488068704700006400002070B50400B4
:1007B00025D094F83D00002520B984F83C5020460F
:1007C00000F078FA242084F83D002068016821F0C8
:1007D000010101602068016841F400410160206866
:1007E000016821F40041016000F0C2FB4D4A6168DC
:1007F000914201D84C4900E04C49884201D2012085
:1008000070BD4B492368B0FBF1F15E6826F03F06EE
:100810000E435E606368934206D94FF49673594362
:100820004FF47A73B1FBF3F12368491C1E6A26F07A
:100830003F06314319626168914210D84900401E59
:10084000B0FBF1F2521CC2F30B02042A01D20420C5
:1008500022E0B0FBF1F0401CC0F30B001CE0A268EA
:10086000F2B301EBC10303EB0116431EB3FBF6F336
:100870005B1C43F480431B0549D092B301EBC102DA
:1008800002EB0111401EB0FBF1F0401CC0F30B0065
:1008900040F4804040F400402168CA694CF6FF7380
:1008A0009A431043C861D4E90710014320680268E5
:1008B00022F0C00211430160D4E903010143206822
:1008C000826848F2FF339A4311438160D4E90501FD
:1008D00008432168CA6822F0FF021043C86001E0A3
:1008E0000EE016E02068016841F001010160256416
:1008F000202084F83D00256384F83E50002070BD20
:1009000001EB4106431EB3FBF6F35B1CB3E701208A
:10091000C2E701EB4101401EB0FBF1F0401CC0F307
:100920000B00B7E7A086010080841E0000093D008F
:1009300040420F002DE9FF4F83B00025DDE910791B
:100940009A4693460446DDF848800095FFF728FF55
:10095000064694F83D0020287CD1192301228549C0
:100960002046009600F08CFF0028F5D194F83C005A
:1009700001286FD0012084F83C0020680168C90775
:1009800003D1016841F0010101602068016821F490
:1009900000610160222084F83D00402084F83E0080
:1009A00025646762A4F82A90608D20857248E06211
:1009B000CDE9008653465A462046049900F062FE6F
:1009C00000287DD1208DDFF8B491202768B101285F
:1009D00014D00228206801681ED041F480610160B3
:1009E0002068416980690090B6E0206841698169AA
:1009F0000091016841F400710160ADE02068016878
:100A000021F48061016072B62068416981690091BA
:100A1000016841F400710AE041F40061016072B6BE
:100A20002068416981690091016821F48061016059
:100A300062B691E0032868D801280CD0022843460A
:100A40004FF000024946204600960FD000F018FFF4
:100A5000B0BB10E08BE032464146204600F0B6FFC6
:100A600070BB20680069616A08706CE000F008FFE4
:100A700030BB72B634E02068016821F48061016007
:100A800072B620680069616A0870606A401C606222
:100A9000208D401E2085608D401E6085384846F2BE
:100AA000A8110068B0FBF1F0C0EBC00000EB8000C3
:100AB0000090401E009008D020684069C04300E0CC
:100AC00029E040070CD50098F3E744F8305F6773DE
:100AD000A573206940F02000206162B625731AE0FA
:100AE0002068016841F40071016020680069616A52
:100AF0000870606A401C6062218D491E2185618DED
:100B0000491E618562B621681BE032464146204697
:100B100000F05CFF18B1012007B0BDE8F08F20683D
:100B20000069616A0870606A401C6062218D491E1C
:100B30002185618D491E618521684A69D24352072A
:100B40000AD409690170606A401C6062208D401EF1
:100B50002085608D401E6085208D00287FF46AAF5F
:100B600084F83D7084F83E5084F83C50D4E702206D
:100B7000D2E70000020010000000FFFF04000100A7
:100B8000700000202DE9FF4F83B09A46DDE91197F0
:100B900093460446DDF84080FFF702FE054694F8D0
:100BA0003D0020287FD1192301224049204600958D
:100BB00000F066FE002876D194F83C00012872D03F
:100BC000012084F83C0020680168C90703D101684E
:100BD00041F0010101602068016821F400610160B9
:100BE000212084F83D00402084F83E000026266441
:100BF000C4F82480A4F82A90608D20852C48E062F7
:100C0000CDE9007553465A462046049900F0B8FDD8
:100C100070B930E02A463946204600F00FFF58B13F
:100C2000206C042804D12068016841F4007101603F
:100C3000012007B0BDE8F08F606A21680078086184
:100C4000606A401C6062218D491E89B22185628DD7
:100C5000521E628522685369DB435B070BD469B17E
:100C600000781061606A401C6062208D401E208503
:100C7000608D401E6085208D0028CBD12A463946E4
:100C8000204600F0D1FD0028CAD154F83D0B016880
:100C900041F400710160202004F81E09E6776677B0
:100CA0000020C6E7FFE70220C3E7000002001000B3
:100CB0000000FFFF10B586B0002100910191029164
:100CC00003910068104988421BD1104CA06940F084
:100CD0000800A061A069694600F0080004904FF484
:100CE0004060009012200190032003900848FFF715
:100CF0005BFCE06940F48000E061E06900F48000A2
:100D0000049006B010BD00000058004000100240E2
:100D1000000C0140024881680278114481607047EC
:100D200064000020074810B5016841F0100101601F
:100D3000032000F075F80F2000F006F800F024F80A
:100D4000002010BD0020024070B50D4D04464FF448
:100D50007A712878B1FBF0F00A490968B1FBF0F02C
:100D600000F0CCFA48B9102C07D200222146501EC0
:100D700000F036F800206C6070BD012070BD0000EE
:100D800064000020700000200C4808B5816941F023
:100D900001018161816901F001010091C16941F0A6
:100DA0008051C161C06900F08050009004484168E2
:100DB00021F0E06141F00071416008BD0010024087
:100DC00000000140002809DB00F01F0201219140D2
:100DD0004009800000F1E020C0F8001170470000D9
:100DE000F0B40E4B1B680C46C3F30223C3F1070596
:100DF000042D00D90425191D072901D2002300E084
:100E0000DB1E012606FA05F1491E214099409E404D
:100E1000761E16403143F0BC01F0B7B80CED00E08F
:100E2000064900F0070208684FF6FF03184040EA41
:100E30000220034A10430860704700000CED00E0F8
:100E40000000FA052DE9F0470F46050061D0434E3A
:100E5000306800F00700B84209D2306820F007007F
:100E600038433060306800F00700B84251D128683C
:100E70003B4C810712D5400703D5606840F4E06021
:100E800060602878000703D5606840F460506060B7
:100E90006068A96820F0F000084360602878C00707
:100EA00028D06868012810D02168022810D089074E
:100EB00000292EDA616821F0030101436160FFF728
:100EC0006FFC804641F288390DE021688903EFE725
:100ED0008901EDE7FFF764FCA0EB0801494502D961
:100EE0000320BDE8F0876068696800F00C00B0EB93
:100EF000810FEFD1306800F00700B8420BD930689D
:100F000020F0070038433060306800F00700B84236
:100F100001D00120E5E72878400705D56068E96839
:100F200020F4E060084360602878000706D5606818
:100F3000296920F4605040EAC100606000F028F8A0
:100F40006168084AC1F30311515CC8400649086052
:100F500006480068FFF7F8FE0020C2E700200240C4
:100F6000001002402C610008700000206800002082
:100F70000448054900684968044AC1F30221515CEC
:100F8000C840704770000020001002403C6100081B
:100F90000E4A51680E4801F00C03042B11D0082BA7
:100FA0000FD10C48C1F38343C903C05C0AD5516813
:100FB000084AC1F34041921E515C054A5043B0FBC0
:100FC000F1F07047044948437047000000100240A8
:100FD00000127A001C61000800093D002DE9F84F5D
:100FE000040070D02078C04DC00749D06868C0F3B5
:100FF0008100012807D06868C0F38100022809D168
:101000006868C00306D52868800339D56068002861
:10101000E7D035E06068B0F5803F0BD010B1B0F597
:10102000A02F11D0286820F480302860286820F490
:10103000802002E0286840F480302860606890B129
:10104000FFF7AEFB06460AE0286840F480202860DF
:10105000F0E700BFFFF7A4FB801B642873D8286863
:101060008003F7D50CE0FFF79BFB064605E000BFC9
:10107000FFF796FB801B6428F0D828688003F7D41C
:1010800020789A4E80074FF001094FF0000839D5BB
:10109000686810F00C0F07D06868C0F38100022860
:1010A00009D16868C00306D42868800714D5206970
:1010B000012808D110E02069B0B1C6F80090FFF710
:1010C0006FFB074605E00AE1FFF76AFBC01B022839
:1010D000C4D828688007F7D52868616920F0F8002F
:1010E00040EAC10028600DE0C6F80080FFF758FB19
:1010F000074604E0FFF754FBC01B022823D82868EA
:101100008007F7D4207800072CD57948A169D9B198
:10111000C0F80090FFF744FB074604E0FFF740FBF0
:10112000C01B02280FD8686A8007F7D571484FF4B2
:10113000FA510068B0FBF1F0009000BF0098411E2A
:101140000091FAD20EE080E0C0F80080FFF728FBA3
:10115000074604E0FFF724FBC01B022875D8686A25
:101160008007F7D42078400760D5E8690027C000E1
:1011700008D4E86940F08050E861E869012700F090
:10118000805000905C480168C90513D4016883460B
:1011900041F480710160FFF703FB824606E000BF67
:1011A000FFF7FEFAA0EB0A0064284ED8DBF8000037
:1011B000C005F5D5E06801280AD008B1052813D08C
:1011C000286A20F001002862286A20F0040002E06A
:1011D000286A40F001002862E06841F2883B98B13B
:1011E000FFF7DEFA82460BE0286A40F0040028622E
:1011F000EEE700BFFFF7D4FAA0EB0A0159455AD831
:10120000286A8007F6D50CE0FFF7CAFA824605E0A7
:10121000FFF7C6FAA0EB0A0159454CD8286A8007A7
:10122000F6D41FB1E86920F08050E861E06988B326
:101230006968C1F38101022944D00228C6F86080A0
:1012400004D0FFF7ADFA044638E034E0FFF7A8FA1F
:10125000074604E0FFF7A4FAC01B02282BD8286831
:101260008001F7D4206AB0F5803F05D16868A16895
:1012700020F4003008436860D4E908010843696835
:1012800021F4741108436860C6F86090FFF788FA8B
:10129000044606E025E000BFFFF782FA001B0228A3
:1012A00009D828688001F7D51BE000BFFFF778FA5E
:1012B000001B022802D90320BDE8F88F28688001AE
:1012C000F4D40EE00128F7D06868226A00F4803177
:1012D000914204D1616A00F47010884201D001206B
:1012E000EAE70020E8E70000001002400000424268
:1012F00080044242700000200070004010B5401E83
:10130000B0F1807F01D3012010BD4FF0E024606177
:101310000F21601700F039FE0020A0610720206136
:10132000002010BD7047704770B590F83C20012A2E
:101330002CD0012480F83C40022280F83D20036834
:101340005A689D6822F070060A6832435A60104B52
:1013500002689A420ED00F4B9A420BD0B2F1804FE6
:1013600008D00D4B9A4205D00C4B9A4202D00C4B40
:101370009A4204D1496825F080031943916080F8AE
:101380003D40002180F83C10084670BD022070BD31
:10139000002C0140003401400004004000080040DF
:1013A000000C004010B5040003D094F83D0010B1CB
:1013B00007E0012010BD002084F83C00204600F02A
:1013C0001FF8022084F83D00211D206800F082FDF6
:1013D000012084F8460084F83E0084F83F0084F839
:1013E000400084F8410084F8420084F8430084F807
:1013F000440084F8450084F83D00002010BD000042
:1014000008B500680B49884212D10B48C16941F008
:101410001001C161C069002200F010000090114667
:101420003620FFF7DDFCBDE808403620FFF7CABCD8
:1014300008BD0000001000400010024090F83D1070
:10144000012901D001207047022180F83D10016878
:10145000CA6842F00102CA6000680E4988420ED094
:101460000D4988420BD0B0F1804F08D00B4988421B
:1014700005D00B49884202D00A49884204D18168CC
:1014800001F00701062903D0016841F00101016064
:1014900000207047002C014000340140000400404F
:1014A00000080040000C0040704770B5044600681A
:1014B00001694FF00005C943890715D4C168C943C4
:1014C000890711D4E91E0161012020772068806915
:1014D0008007204602D0FFF7E7FF04E000F098F80D
:1014E000204600F096F8257720680169C94349072E
:1014F00017D4C168C943490713D46FF004010161CF
:10150000022020772068806910F4407F204602D0B6
:10151000FFF7CAFF04E000F07BF8204600F079F8FE
:10152000257720680169C943090716D4C168C943F2
:10153000090712D46FF008010161042020772068A8
:10154000C0698007204602D0FFF7AEFF04E000F03C
:101550005FF8204600F05DF8257720680169C943EF
:10156000C90617D4C168C943C90613D46FF0100166
:101570000161082020772068C06910F4407F204670
:1015800002D0FFF791FF04E000F042F8204600F09F
:1015900040F8257720680169C943C90708D1C168A7
:1015A000C943C90704D1891E0161204600F032F801
:1015B00020680169C943090609D4C168C9430906FD
:1015C00005D46FF0800101612046FFF7ABFE206873
:1015D0000169C943490609D4C168C943490605D40C
:1015E0006FF040010161204600F032F82068016987
:1015F000C94389060BD4C168C943890607D46FF073
:10160000200101612046BDE87040FFF78CBE70BD2F
:1016100070477047094910B588420ED108490948FA
:1016200000F080FA064C206D03F0B6FB064A074B2B
:1016300002F070FE02F03CFE206510BD3401002077
:1016400088000020E0000020D0E2D6EE682DF63EB3
:101650007047FEE701684A69D24352050FD46FF420
:1016600080624A61002140F8301F2022427381735A
:10167000026942F0040202610173012070470020F8
:10168000704700002DE9F84F0446006889460B9D1D
:1016900001689846174641F480610160206801683E
:1016A00041F48071016000954FF0011B0022594602
:1016B00020460A9B00F0E4F84FF4007A40B120681D
:1016C0000068C00501D5C4F840A00320BDE8F88F2C
:1016D000216809F0FE0008612B46284920460A9A35
:1016E00000F016F9F0BB20684169806900902A4635
:1016F00020460A9900F0A2F940B1206C04283AD1A2
:101700002068016841F40071016034E0FEB2B8F174
:10171000010F09D02168380A08612A4620460A9933
:1017200000F08CF90028E8D1206806612A4620469E
:101730000A9900F083F90028DFD12068016841F49C
:101740008071016000950022594620460A9B00F0F6
:1017500097F80028B3D1216809F0FF0040F001009C
:10176000086100E007E02B46044920460A9A00F091
:10177000CFF80028AAD00120A8E70000020001004D
:101780002DE9F843044600680D46DDE90897016835
:101790009846164641F4807101604B4600224FF096
:1017A00001112046009700F06BF848B120680068EE
:1017B000C00502D54FF4007020640320BDE8F88313
:1017C000216805F0FE0008613B464A46154920465F
:1017D00000F09EF888B920684169806900903A4617
:1017E0004946204600F02AF948B1206C042804D16B
:1017F0002068016841F4007101600120DEE7F5B264
:10180000B8F1010F09D02168300A08613A4649460B
:10181000204600F013F90028E7D120680561002078
:10182000CCE700000200010070B516460D460446E4
:101830001EE02046FFF70EFF08B1012070BD681CB6
:1018400016D0FEF7ADFF801BA84200D885B92068EE
:101850004069C04340070BD5002044F8300F2021D9
:101860006173A073216941F0200121612073E4E7D5
:1018700020684069C0434007DBD4002070BD0000F1
:101880002DE9F047984617460D460446C1F3074632
:10189000DDF820902AE000BFB8F1FF3F26D0FEF728
:1018A0007FFFA0EB0901414502D8B8F1000F1DD11F
:1018B0002068012E16D0806925EA00000004000C83
:1018C00012D00020B84211D1002044F8300F20215E
:1018D0006173A073216941F020012161207301200F
:1018E000BDE8F0874069E7E70120EBE72068012EBB
:1018F0000AD0806925EA00000004000C06D0002010
:10190000B842C9D00020EBE74069F3E70120F7E7D0
:101910002DE9F047984616460D4604464FF000095B
:101920004FF0200AC1F3074723E020684069C04315
:10193000400515D42068016841F4007101602168F8
:101940006FF480604861C4F8309084F83DA084F85A
:101950003E90216C41F00401216484F83C9021E028
:10196000701C06D0FEF71CFFA0EB0800B04203D8A5
:1019700016B1012F1FD021E02068012F15D08069FA
:1019800025EA00000004000C18D000BF44F8309F86
:1019900084F80DA084F80E90216941F020012161A6
:1019A00084F80C900120BDE8F087406925EA00002A
:1019B0000004000CEAD12068406901E020688069D9
:1019C00025EA00000004000CAFD1ECE72DE9F0415E
:1019D000002590460E460446202728E04069C04373
:1019E000C0060CD454F8301B6FF01000486144F866
:1019F00010596777A577206A2062257714E0FEF7F3
:101A0000CFFEA0EB0800B04200D886B9206840693C
:101A1000C04340060BD544F8305F6773A573206957
:101A200040F02000206125730120BDE8F08120688E
:101A30004169C9434906D1D40020F6E770B516467E
:101A40000D4604461EE02046FFF704FE08B10120C3
:101A500070BD681C16D0FEF7A3FE801BA84200D8FC
:101A600085B920684069C04300060BD5002044F8C2
:101A7000300F20216173A073216941F020012161A1
:101A80002073E4E720684069C0430006DBD40020EF
:101A900070BD00002DE9FF41804601252048CDE9B9
:101AA000000564242B467522D02102944046FEF79F
:101AB00041FF1B48007868282FD1002703AE8DF81E
:101AC0000C700096CDE9015401236B22D0214046D1
:101AD000FFF758F807208DF80C000096CDE9015467
:101AE00001231922D0214046FFF74CF818208DF829
:101AF0000C000096CDE9015401231B22D021404661
:101B0000FFF740F88DF80C700096CDE901540123E1
:101B10001C22D0214046FFF735F8BDE8FF810000C8
:101B200000000020F0B585B00C46054600F0BEF878
:101B30006422062103A88DE8070001233B22D0215F
:101B40002846FEF7F7FEBDF80C0040BA00B2208030
:101B5000BDF80E1049BA0EB26680BDF8101049BA31
:101B60000DB2A58002F026FE6FF00D073A4603F095
:101B700044FCC4E90201304602F01CFE3A4603F080
:101B80003CFCC4E90401284602F014FE0022114B7B
:101B900002F07CFCC4E90601206D03F0FDF80E4A5A
:101BA0000E4B02F0B7FB02F083FB0D4D064620659D
:101BB0003146A86903F01CF9A0643146E86903F0D6
:101BC00017F9E0643146686903F012F9606405B002
:101BD000F0BD00000029CC40D0E2D6EE682DF63EE4
:101BE000000000200D4808B5816941F020018161A5
:101BF000816901F020010091816941F00801816152
:101C0000816901F008010091816941F0040181615D
:101C1000806900F00400009008BD00000010024040
:101C20000D4810B50B4901600C49416000214FF48B
:101C300080428160C0E9031241618161C16101623A
:101C4000FEF7B4FD002803D0BDE81040FEF797BCB6
:101C500010BD000000580040E0000020801A06007F
:101C60001CB500240E4800940C49019401604721E2
:101C7000C0E9011441F287318461C160FFF792FB32
:101C800008B1FEF77CFC0094694605480194FFF713
:101C90004BFB002801D0FEF772FC1CBD0010004079
:101CA00034010020FEE7FEE7704700002DE9F04F09
:101CB00089B007A96848CDE9000100F1240106AB0D
:101CC00002AA1E3000F080FE634CA41E6088C0058E
:101CD0007ED5029803F0F2F96FF01D06314603F04D
:101CE000BAFB80466060039803F0E8F9314603F0E0
:101CF000B2FB0746A060049803F0E0F9314603F018
:101D0000AAFB0546E060059803F0D8F9314603F0D8
:101D1000A2FB064620610121404603F09CFB2946B8
:101D200003F0F8F905464FF040484146384603F0C5
:101D3000F1F9314603F0EEF9294603F059F803F0C2
:101D40002BF800F0DBF9DFF814A14FF066394A46B2
:101D5000534602F047FD02F0ABFA6061E0680121F2
:101D6000054603F078FB8346294603F0D3F9054680
:101D7000A0684146064603F0CDF9314603F0CAF9A2
:101D8000294603F093FA4FF07E5103F031F803F047
:101D900003F807460D460121606803F05CFB3146FD
:101DA00003F0B8F906465846216903F0B3F9314605
:101DB00003F01EF802F0F0FF3A462B4600F0E6FB77
:101DC0004A46534602F00EFD02F072FAA06100E0AE
:101DD0003FE021690191084603F09CF9E16807465C
:101DE0000846009103F096F9A16806468B465846CE
:101DF00003F090F9616805468846404603F08AF989
:101E0000294602F0F5FF314603F050FA394603F057
:101E10004DFA02F0C1FF06460D464046019903F017
:101E200079F907465846009903F074F9394602F0EB
:101E3000DFFF012103F00FFB02F0AEFF32462B461D
:101E400000F0A4FB4A46534602F0CCFC02F030FA04
:101E5000E06109B0BDE8F08F0200002066A64C40AA
:101E60007047FEF757BF30B58FB028216846FEF7A0
:101E700025FA14210AA8FEF721FA01210804CDE968
:101E800000100024029402250491CDE907504FF47C
:101E9000E01009906846FFF7A1F808B172B6FEE7B6
:101EA0000F20CDE90A054FF48060CDE90C400221F6
:101EB0000AA80E94FEF7C6FF002801D072B6FEE70E
:101EC0000FB030BD704700000148FFF7EEBA0000C8
:101ED00034010020F0B502681C4B1D4D1D4E1E4FF5
:101EE0001E4C4FF0804C984209D0A04207D060456C
:101EF00005D0A84203D0B04201D0B84204D122F0AC
:101F0000700E4A6842EA0E02984209D0A04207D0F9
:101F1000604505D0A84203D0B04201D0B84203D1F9
:101F200022F44075CA682A434D6922F080022A4390
:101F300002608A68C2620A688262984201D0A04246
:101F400001D10969016301214161F0BD002C01400B
:101F50000004004000080040000C00400034014034
:101F6000FEE7490050EAC12018BF04204A0D18BFFF
:101F700040F0010040F2FF72B2EB515F08BF40F049
:101F80000200012808BF052070470907090E002834
:101F900004DB00F1E02080F80014704700F00F002F
:101FA00000F1E02080F8141D70472DE9F0414F1E2C
:101FB00000EBC7010446D1E9000115461E4637F083
:101FC00006020DD02A46334602F00CFC7F1E04EBBD
:101FD000C703D3E9002302F09DF937F00602F1D1DF
:101FE000022F25D0042F13D0062F18BFBDE8F08193
:101FF0002A46334602F0F6FBD4E90A2302F08AF9B6
:102000002A46334602F0EEFBD4E9082302F082F9B7
:102010002A46334602F0E6FBD4E9062302F07AF9B9
:102020002A46334602F0DEFBD4E9042302F072F9BB
:102030002A46334602F0D6FBD4E9022302F06AF9BD
:102040002A46334602F0CEFBD4E90023BDE8F04136
:1020500002F060B9012203F0D0B902F05BB90022AE
:1020600013461046114602F011BA0000024A002041
:10207000110703F0C2B9000001FDFFFF2DE9FE4F7B
:1020800007460E460025684600F0F8FF00246FF072
:102090000F0AE8464FF0010957F8240056F82410BB
:1020A000401A00D5404203F009F8514603F0D3F935
:1020B00058F8241011F0FF4F0BD002F001FF4FF041
:1020C0007E5103F0F3F80A4920F00040884205DC15
:1020D00007E0084908440849884202D309FA04F095
:1020E0000543641C032CD7DB2846BDE8FE8F0000A7
:1020F000295C0F3E666666C19A99D9002DE9F04DBC
:102100008D4F21F0004A86B005460C46BA452ADBC1
:10211000AAEB070028430AD08848824501DC1AD17F
:10212000CDB106B02846BDE8F04DFFF793BF844A15
:10213000844B284602F056FB07460E46824A834BE4
:102140002846214602F04EFB06B03A463346BDE82B
:10215000F04D02F0DFB80120FEF756F906B0BDE8F9
:10216000F04DFFF77CBF7A48824542DABAF1795FD9
:102170000BDA2846FFF7F5FE042808BFFFF776FFC5
:10218000284606B02146BDE8F08D2A460B4610468B
:1021900002F028FB834602466E480E460B46062197
:1021A0007844FFF702FF5A46334602F01BFB804695
:1021B00069488A465A46334604217844FFF7F5FEBB
:1021C0005A46334602F00EFB00223B4602F0A2F8CC
:1021D00002460B464046514602F058F92A4623462D
:1021E00002F000FB06B02A462346BDE8F04D02F09F
:1021F00091B8284624F0004100223D463B4602F0BB
:10220000EFFB4FF0FF3203F0F8F806460246534862
:102210000F460B4606217844FFF7C7FE32463B4681
:1022200002F0E0FACDE900014D4832463B46042178
:102230007844FFF7BAFE32463B4602F0D3FA00225A
:102240002B4602F067F8834602913046394602F089
:1022500009F8804643480D46504517DCDDE900018A
:102260005A46029B02F012F942462B4602F0BAFA95
:1022700042462B4602F04EF8012203F0BEF8304AE7
:10228000304B02F09FFC304A304B4CE04FF0000ADC
:1022900052460B46404602F03DF8CDE90310524647
:1022A0002B461046194602F09DFA32463B4602F094
:1022B00097FBDDE9033202F0E9F806460F46DDE957
:1022C00000015A46029B02F0E1F883460091012288
:1022D0003046394603F091F8194A1A4B02F080FB58
:1022E00006460F4601224046294603F086F85A4624
:1022F000009B02F077FA32463B4602F063FC06464A
:102300000F4601225046294603F077F80E4DDFF8BC
:1023100058802A46434602F063FB32463B4602F0B1
:102320005FFB2A46434602F05BFB002CD8BF81F0DE
:10233000004106B0BDE8F08D0000F03F0000F07FE6
:10234000075C143326A6913C182D4454FB21F93F19
:102350000000E03FA43F0000BA3F00002E3F000015
:10236000443F00003333EF3FFB21E93F2DE9F84FB5
:1023700004460D4621F0004000917349814211DC72
:102380007249884201DC06D12CB120462946BDE8BD
:10239000F84FFFF75FBE6E48002DCCBF6D496E4908
:1023A000BDE8F88F6D49814211DD6D498142D8BF8A
:1023B0004FF0FF366DDD20462946FFF7D2FD042899
:1023C00008BFFFF753FE20462946BDE8F88F654950
:1023D000654F25F00045814233DD6449814219DDB6
:1023E000002632464FF080432046294601F092FFF6
:1023F00080468A4601222046294602F0FEFF00223E
:102400003B4602F0DFFB4246534602F03FF80446EB
:102410000D463EE001260022BA463B4620462946AC
:1024200001F078FF80460F46002253462046294699
:1024300002F0C8FB42463B4602F028F804460D462F
:1024400027E04B4981421BDDDFF828A1022600224C
:1024500053462046294602F0C5F900223B4601F0CA
:1024600059FF80460F46002253462046294602F077
:10247000A9FB42463B4602F009F804460D4608E037
:10248000032622462B4600203B4901F0FFFF04466D
:102490000D4622462B461046194602F0A3F98B46FC
:1024A000824602460B4602F09DF907460246334833
:1024B00088460B4606217844FFF777FD52465B4677
:1024C00002F090F982462E488B463A464346052153
:1024D0007844FFF76AFD3A46434602F083F9024624
:1024E0000B46002E504659460CDA01F013FF2246E7
:1024F0002B4602F077F901B022462B46BDE8F04F9B
:1025000002F06EBA01F006FF22462B4602F06AF98D
:102510001C4A7A4402EBC603D3E9002302F052FBC3
:1025200022462B4602F04EFB174A7A4402EBC603C2
:10253000D3E9002302F054FA009A002AB8BF81F0D0
:102540000041BDE8F88F0000000010440000F07F5B
:10255000182D4454FB21F93FFB21F9BF0000DC3F5B
:102560000000203E0000F33F0000F03F0000E63F87
:10257000008003400000F83F0000F0BF463D00002F
:10258000043D0000A23C00006A3C00002DE9F04D33
:102590009446CCF1000423F000464CEA0404594F61
:1025A00046EAD4749A46884621F00042BC4206D8D6
:1025B000454240EA050442EAD474BC4204D9BDE86D
:1025C000F04D6246FFF749BDAAF14055A5F17F6580
:1025D00055EA0C040BD0022404EAAA744A4DDFF831
:1025E0002CE144EAD87452EA000B04D00CE0BDE8B8
:1025F000F04DFFF7BBBE002C14BF012CBDE8F08DE1
:10260000022C30D0032C32D056EA0C0B0AD0BE423A
:1026100020D1BA4209D126F0804622F080423346CA
:10262000114617E000291ADB25E0DFF8E4B0FB448F
:10263000002C04BFDBE90001BDE8F08D012C02BFD6
:10264000DBE9000181F00041BDE8F08D022C0AD0E9
:10265000032C0CD0BA4212D1B8F1000F0BDA2A4881
:102660002C49BDE8F08D28462B49BDE8F08D284661
:102670007146BDE8F08D24482849BDE8F08D921BD5
:1026800012153C2AC4BF204F244E10DCBAF1000FB3
:10269000BEBF12F13C0F00273E4608DB624601F048
:1026A000F5FE21F00041FFF761FE07460E4694B1AA
:1026B000012C08BF86F000460DD0194A194B022C98
:1026C0003846314615D002F07DFA2A46BDE8F04D75
:1026D000114B02F077BA002213463846314602F019
:1026E0002DF804BF0220FDF78FFE38463146BDE8C5
:1026F000F08D02F067FA2A46BDE8F04D064B02F075
:102700006FB900000000F07F182D4454FB2109C070
:10271000FE3B0000FB21F9BFFB210940FB21F93FF3
:10272000075C143326A6A13C08B560B120208DF8C3
:10273000000028208DF8010030208DF8020038209C
:102740008DF8030004E0A32204216846FDF7AEFDE6
:102750006A46042140F69E2001F0F0FC01F0B6F933
:1027600008BD00003EB5044602208DF80000CA20D6
:102770008DF80100E3208DF8020009208DF8030098
:102780006A460421682001F0D9FCA3208DF80000DE
:10279000610609D5C0218DF80110C8218DF80210FD
:1027A000C2218DF8031005E08DF801008DF80200BC
:1027B0008DF8030014F4C07F09D0C4218DF80410F3
:1027C000CC218DF80510C6218DF8061005E08DF896
:1027D00004008DF805008DF806008DF808008DF8CE
:1027E00007008DF809006A460A2140F6A72001F08B
:1027F000A5FCA0074FF0D80503D020208DF80000DD
:1028000001E08DF800506A46012140F6B62001F043
:1028100095FCA00601D5012000E0002000F08EF814
:1028200014F4C07F1ED0E0050AD5B2208DF8000058
:102830008B208DF80100B6208DF802009B2009E066
:10284000B0208DF8000080208DF80100B4208DF8B4
:10285000020090208DF803006A46042140F6A22071
:1028600001F06CFCE1074FF40B6022D0F8218DF8E9
:1028700000106A46012101F061FCFA21072000F0F6
:1028800049FB072000F014FB012000F031FB64201D
:1028900000F0D4FB4FF4FA7000F0E0FBC8212548AB
:1028A00000F0CEFA282000F0E3FA0A2000F0F0FA57
:1028B00005E08DF800506A46012101F03FFCA007B9
:1028C00003D5D9208DF8000001E08DF800506A464C
:1028D000012140F23D7001F031FC600701D501207B
:1028E00000E0002000F048F8E00601D5012000E0FB
:1028F0000020FFF719FF104D44F00800688101F037
:10290000E5F80020A873600601D50620A87314F42A
:10291000C07F02D0A87B801DA87314F0140F02D0D2
:10292000A87B1030A873A00702D0A87B001DA87355
:1029300000203EBD09E3CA02740000200EB54FF42A
:10294000976310B106A107C901E008A207CA8DE884
:1029500007006A460921184601F0F0FB0EBD000091
:10296000B8AAB38DB4980D355D000000B8AAAAAA24
:10297000B088C3C5C700000008B560B1C0208DF89D
:102980000000C2208DF80100C4208DF80200C6208E
:102990008DF8030004E08B2204216846FDF786FCD5
:1029A0006A46042140F6982001F0C8FB01F08EF839
:1029B00008BD0000C8234FF48062024940F6F6309B
:1029C00000F066BF245500082DE9FF4F89B0174677
:1029D000DDE916520024544E884681462C80A246DA
:1029E000B07B694601F000F84FF0FF3B18B1584644
:1029F0000DB0BDE8F08F708910F0140F4CD0BDF809
:102A000000109DF8022049BA090441EA02239DF80A
:102A100003100B433B60BDF804109DF8062049BA33
:102A2000090441EA02229DF807101B140A437A6048
:102A3000BDF808109DF80A4049BA090441EA04218A
:102A40009DF80B4012142143B960BDF80C409DF86D
:102A50000EC064BA240444EA0C2C9DF80F400914FB
:102A60004CEA040CC7F80CC04FEA2C475B434943BF
:102A700002FB023207FB071111441024A1F170611F
:102A8000B1F1007F04D901F021F8A5F800A0AEE76C
:102A9000298841F4807129804206694611D50A19B6
:102AA000A41D13885BBAA8F8003053885BBAA8F855
:102AB0000230928852BAA8F804202A8842F008020C
:102AC0002A8010F4C07F11D00A19A41D13885BBAA4
:102AD000A9F8003053885BBAA9F80230928852BA3C
:102AE000A9F804202A8842F070022A80800716D0B4
:102AF0000C44E07800F0C00500F03F016078C007AA
:102B000006D0C80801F007013268491C02B190479D
:102B10006078000703D5716809B1A80988470C9847
:102B200001F036FB002063E7740000202DE9FF412F
:102B3000044603A800F094FDBDF80C00410CC3034B
:102B40002F48008900F0030254F82250420700D5B4
:102B50006D42C0F3C102860654F8222000D55242CD
:102B6000C0F38116C00554F8264000D56442A5FB89
:102B70000367E81700FB037005FB0100850045EAC9
:102B80009670A2FB0367D51705FB037502FB015284
:102B9000950045EA9672A4FB0367E51705FB0373EE
:102BA00004FB01318B0043EA9671030E8DF800306F
:102BB000030C8DF80130030A8DF802308DF8030004
:102BC000100E8DF80400100C8DF80500100A8DF819
:102BD0000600080E8DF80800080C8DF80900080A98
:102BE0008DF80A008DF807208DF80B106A460C212D
:102BF0004FF4257001F0A2FA04B0BDE8F0810000A6
:102C00007400002030B5044613A285B007CA8DE8D1
:102C100007004FF0FF35C82C16D8C820B0FBF4F1E0
:102C2000491E080A8DF80C008DF80D1003AA022128
:102C300040F2162001F082FA30B96A460C2140F6C3
:102C4000C12001F07BFA10B1284605B030BD05481F
:102C500084810020F9E70000FEF2ABC4AAF1DFDFB7
:102C6000BBAFDFDF74000020F8B53049098901F0FF
:102C7000030250F822404A0700D56442C1F3C10262
:102C80008B0650F8222000D55242C1F3811350F830
:102C90002330C80500D55B42254984FB01408500EF
:102CA00045EA947082FB0142A40F44EA820483FB4C
:102CB0000121950F45EA8105010E8DF80010010CE8
:102CC0008DF80110010A8DF802108DF803006A4694
:102CD00004214FF4747001F031FA4FF0FF3688B9D7
:102CE000200E8DF80000200C8DF80100200A8DF8D0
:102CF00002008DF803406A4604214FF4757001F01C
:102D00001DFA08B13046F8BD280E8DF80000280CD9
:102D10008DF80100280A8DF802008DF803506A46EC
:102D200004214FF4767001F009FAF8BD7400002018
:102D300009E3CA022DE9FF4104463CA004F0030365
:102D4000006802903AA0006803903AA006683AA092
:102D5000056802A8C15C8DF80010C4F3C101425C93
:102D60008DF80120C4F38112805C8DF8020003A865
:102D7000C35C8DF80430415C8DF80510805C8DF8E3
:102D800006006A46032140F2264001F0D7F94FF0D1
:102D9000FF37E0BB01AA032140F22A4001F0CEF93F
:102DA000A8BBCDE9006560070BD59DF8000040F099
:102DB00001008DF800009DF8040040F001008DF83E
:102DC0000400A0060BD59DF8010040F001008DF82D
:102DD00001009DF8050040F001008DF80500E005B8
:102DE0000BD59DF8020040F001008DF802009DF81F
:102DF000060040F001008DF806006A4603214FF4FA
:102E0000886001F09BF910B901AA032100E004E0F9
:102E100040F2314001F092F918B1384604B0BDE8F3
:102E2000F081064804810020F8E700004CCD6C00DA
:102E30000CC92C0036567600264666007400002029
:102E40004FF47A7290FBF2F008B54843010E8DF80A
:102E50000010010C8DF80110010A8DF802108DF898
:102E600003006A4604214FF4AE7001F067F908BD13
:102E70000521B0FBF1F008B5010A8DF800108DF8BE
:102E800001006A4602214FF4AD7001F057F908BD08
:102E90000521B0FBF1F008B5010A8DF800108DF89E
:102EA00001006A4602214FF4AC7001F047F908BDF9
:102EB00008B500218DF80010C10702D030218DF82F
:102EC0000010810705D59DF8001041F00C018DF828
:102ED0000010400705D59DF8000040F003008DF874
:102EE00000006A4601214FF4A47001F027F908BDE3
:102EF00008B560B1042800D90420401E8DF80000F8
:102F00006A46012140F24F1001F018F908BD012076
:102F1000F3E700002DE9FC41054640074FF0FF367E
:102F20007CD0B1F5C86F79D8084602F0DFF83E4989
:102F300001F0C6FF074601A800F074FB9DF80400ED
:102F4000022806D004280DD008282ED0102865D1DC
:102F500034E00E21384602F07EFA02F08FF884B297
:102F6000324907E00D21384602F075FA02F086F882
:102F70002F4984B2384602F0CDF802F07FF8210ADA
:102F80008DF8001080B28DF80140010A8DF8021012
:102F90008DF80300E8076C4620D0224602214FF44A
:102FA000EA7001F0CBF8C8BB11E00C21384602F002
:102FB00052FA02F063F884B21E49DBE70B2138466F
:102FC00002F049FA02F05AF884B21B49D2E7A21C77
:102FD00002214FF4927001F0B1F8F8B9A8070DD5AD
:102FE0006A4602214FF4EC7001F0A8F8B0B9A21CB7
:102FF00002214FF4947001F0A1F878B9680710D558
:103000006A4602214FF4EE7001F098F830B9A21C24
:1030100002214FF4967001F091F810B13046BDE8EE
:10302000FC810020FBE70000000048430000404610
:103030000000C045000040450000C0440521B0FB31
:10304000F1F008B5010A8DF800108DF801006A460C
:1030500002214FF4EF7001F071F808BD0521B0FBBB
:10306000F1F008B5010A8DF800108DF801006A46EC
:1030700002214FF4ED7001F061F808BD2DE9FE4327
:103080000646264801AB042240680D21007800F076
:103090003FFA10B10720BDE8FE839DF804101C2004
:1030A00000EAD1029DF80710DFF87490C1F3011314
:1030B0001A438DF800209DF80520C1F3810300EA32
:1030C000D2021A438DF801209DF8062001F0030179
:1030D00000EAD20008430024124F8DF80200A046F7
:1030E0006D46285D10B146F824900AE046F8248029
:1030F0000DE000BF56F82400394602F00BF846F800
:103100002400285D401E10F0FF002855F2D1641CF9
:10311000E4B2032CE5D30020BDE700003800002016
:103120007B14AE3E1D5A843F2DE9FE4F054601201B
:10313000C14E8DF800004FF000088DF80180306816
:103140000C461746817C70686B460222007800F0BE
:10315000F1F94FF0FF3A00287AD1C820FDF712FAB2
:103160008DF8008030686B460122C17B7068007862
:1031700000F0E0F90028EFD130686B460122417978
:103180007068007800F0D6F90028E5D130686B4609
:103190000122817C7068007800F0CCF90028DBD136
:1031A00030686B460122C17D7068007800F0C2F97A
:1031B0000028D1D130686B4601220179706800780F
:1031C00000F0B8F90028C7D14FF00C098DF8009035
:1031D00030686B46012201797068007800F0AAF926
:1031E000002835D10F20FDF7CDF9B06A6B460122DA
:1031F000407A8DF80000306881787068007800F0BF
:1032000099F9002824D1B06A6B460122007A8DF822
:103210000000306841787068007800F08BF9002871
:1032200073D1B06A807A0FB140F0E0008DF80000F1
:1032300030686B46012281797068007800F07AF975
:10324000002862D12FB1B06AC07A40F0E00001E0FE
:103250004AE018208DF8000030686B460122C179E1
:103260007068007800F066F9F0BB17B1C820FDF770
:1032700089F940208DF8000030686B460122017901
:103280007068007800F056F970BB78208DF8000067
:1032900030686B46012241797068007800F04AF985
:1032A00010BB3220FDF76EF98DF80080306847467C
:1032B0006B46417970680122007800F03BF998B9BB
:1032C00031687068B046897A00786B46022200F057
:1032D0001FF948B9BDF80000AF6040BAB0FBF9F083
:1032E0006F60C6B22F6000E00FE0A76067602760E4
:1032F000002739E0D8F80010D8F804006B46C97AE6
:1033000000780C2200F004F910B15046BDE8FE8FA1
:10331000BDF80000236840BA00B2BDF80210BDF845
:1033200004201844206049BA606809B2084460600B
:1033300052BAA06812B21044A060BDF806002B6813
:1033400040BA01B2BDF80800BDF80A20194429604E
:1033500040BA696800B20844686052BAA86812B2FC
:1033600010447F1CFFB2A860B742C3D328688322F1
:10337000C117090441EA104100040023FCF746FF8D
:1033800032460023FCF742FF286068688322C11799
:10339000090441EA104100040023FCF737FF3246DC
:1033A0000023FCF733FF6860A8688322C117090473
:1033B00041EA104100040023FCF728FF32460023B5
:1033C000FCF724FFA86020684FF40065C1170904CA
:1033D00041EA104100042A460023FCF717FF324659
:1033E0000023FCF713FF206060682A46C117090418
:1033F00041EA104100040023FCF708FF3246002395
:10340000FCF704FF6060A0682A46C117090441EA7E
:10341000104100040023FCF7F9FE32460023FCF7BC
:10342000F5FEA060002802DDA0F5803001E000F587
:103430008030A060002069E7380000202DE9F84FB7
:1034400081462E488846002540686B460322007856
:103450000D2100F05DF810B10720BDE8F88F9DF850
:103460000000002400F01F008DF800009DF801000E
:103470006FF00F0B00F01F008DF801009DF80200A7
:103480006E4600F01F008DF802004FF0010A00BFE9
:1034900059F8241058F82400081A00D5404201F0C9
:1034A0000DFE594601F0D7FF0746305DC0B1144804
:1034B00002E0144901F02EFE315D491E11F0FF01BA
:1034C0003155F6D10146384601F0FAFC4FF07E51F5
:1034D00001F0ECFE0C4920F00040884205DC07E0DA
:1034E0000A483844B0F1D97F02D90AFA04F00543FA
:1034F000641C032CCCDB2846AFE70000380000201A
:103500000000C84154E3853F295C0F3E0000E0BE47
:103510003EB54000CDE900320A46642401460294DB
:1035200001230348FDF706FA002800D001203EBD24
:10353000E00000203EB54000CDE900320A46642498
:103540000146029401230348FDF71CFB002800D02C
:1035500001203EBDE000002090F90010002902DDAE
:103560004FF00000704702DA4FF00400704790F906
:103570000110002902DD4FF00100704702DA4FF020
:103580000500704790F90200002802DD4FF00200AC
:10359000704702DA4FF0060070474FF0070070479F
:1035A000FDF7C0FBFEF75FFCFEF71CFBFEF738FBE8
:1035B000FEF756FB0448FDF741FF0448FEF76AFAA0
:1035C0000248FCF787FFFEE734010020E0000020FE
:1035D0002DE9F041124C20F00101002594F824005F
:1035E00010B10020BDE8F081A07A4FF0FF3668B13D
:1035F0000840277C2074884200D0354641B1012024
:1036000000F004FE00F062FA38B127743046E9E7B2
:10361000207D00B1012000F0F9FD2846E2E700001E
:10362000380000200D494A7A42B1012A08D0022A06
:103630000FD0032A0FD04FF0FF307047022200E076
:1036400004220270C97C11B11106C90D017000205D
:1036500070470822F5E71022F3E700003800002049
:103660000F494A7A42B1012A09D0022A11D0032A0D
:1036700012D04FF0FF3070474FF4804201E041F626
:103680009C720280C97C11B1C2F34E0101800020FE
:1036900070474FF48052F4E74FF40062F1E7000006
:1036A000380000200B49097A39B1012907D00229D5
:1036B0000AD003290BD0002103E0FA2101E04FF4E6
:1036C000FA710180002070474FF47A71F9E74FF4E6
:1036D000FA61F6E7380000200A49097A41B1012968
:1036E00008D002290AD003290AD04FF0FF307047D2
:1036F000054900E005490160002070470449FAE7E8
:103700000449F8E73800002000000343000083422A
:1037100033330342333383410C49C97A072913D227
:10372000DFE801F01204060A0C0E1000BC2100E0D4
:1037300062210180002070472A21FAE71421F8E76E
:103740000A21F6E70521F4E70021F2E7380000201E
:10375000054991F8242012B14FF0FF307047C98914
:103760000180002070470000380000202DE9FC4156
:10377000464C80208DF8000020686B460122817C39
:1037800060680078FFF7D6FE4FF0FF37002875D14C
:103790006420FCF7F7FE00258DF8005020686B468A
:1037A0000122817C60680078FFF7C4FE002865D1A3
:1037B00020686B460622817D60680078FFF7A8FECE
:1037C00000285BD19DF805009DF80310C007400F4D
:1037D00001F0010140EA41009DF801104FF001069F
:1037E00001F00101084304D0012831D0022810D093
:1037F00044E020686B460122C17860680078FFF7DA
:1038000087FED8BB9DF8000010F00F0036D00428CA
:103810001ED0E574FF2004F80A0F4FF6FF7104F87C
:10382000020C04F8010C6070A180A0712072A670D7
:1038300026766576E572A572E56025616561A576F7
:10384000E576A5834FF4FA6000F03EFBB0B901E0E5
:10385000E674DFE7022000F059FA78B92A2000F078
:103860009BFB58B9322000F0CDFB38B90020FFF7A0
:10387000AFFE18B9002000F07DFA10B13846BDE85F
:10388000FC81002000F0FEFB0020F8E7380000205B
:103890002DE9FF4FDFF89480064685B098F82500A3
:1038A00015460F464FF0FF39B0BBAFB3002420E000
:1038B000301B102800DD102080B283463A190146E3
:1038C0009246204600F03AFC30BB6A4659462046F4
:1038D00000F0D2F800BB50465A466946FCF7BAFCE5
:1038E00020B16FF0010009B0BDE8F08F04EB0B00D0
:1038F00084B2B442DCD3280A8DF810008DF8115040
:10390000D8F80000444604AB817ED8F804000222B7
:103910000078FFF70FFE08B14846E4E7012084F87D
:1039200025000898E0840020DDE700003800002032
:103930002DE9F84305464FF0FF39282844D80727DA
:10394000284C00267DB1012000F0F4FA20208DF8EB
:1039500000004FF00108012D17D0052D18D88DF863
:10396000018005201FE0002000F0E4FA8DF80060DF
:103970008DF8017020686B460222817C60680078B7
:10398000FFF7D8FD00BB267529E08DF80160E8E758
:10399000142D04D802208DF801000A2003E0032032
:1039A0008DF80100142000F0F7FA9DF801006B4635
:1039B00007EB80108DF8010020680222817C60688E
:1039C0000078FFF7B7FD10B14846BDE8F88308203E
:1039D000A072267384F814800020FFF7F9FD002000
:1039E000F3E70000380000202DE9F843214C06469B
:1039F000174694F8240089464FF0FF3890B3A07A18
:103A000080B320686B460222817A60680078FFF7F5
:103A10007FFD38BBBDF8000045BAB54202D2002098
:103A200038701FE060684188B5EB510F11D92168EB
:103A300000786B46497C0122FFF76AFD90B99DF83A
:103A40000000C00605D500F041F86FF00100BDE8A8
:103A5000F8832068F2B24B46C17A60680078FFF7BD
:103A600057FD08B14046F2E7B5FBF6F0401E38704E
:103A70000020ECE738000020F8B516000D464FF0A6
:103A8000FF371FD0104CA17AE1B1010A8DF8001068
:103A9000C0B28DF80100411960684289914211D885
:103AA000216800786B46097E0222FFF743FD48B982
:103AB0002068EAB23346417D60680078FFF728FD50
:103AC000002800D03846F8BD38000020F8B5524C28
:103AD0004FF0FF36A07A00287CD000258DF80050EA
:103AE00020686B460122C17B60680078FFF722FDE9
:103AF00000286FD120686B46012241796068007808
:103B0000FFF718FD002865D120686B460122017976
:103B100060680078FFF70EFD00287AD194F8240041
:103B2000C8B30C208DF8000020686B460122017993
:103B300060680078FFF7FEFC00286AD1C0208DF88D
:103B40000000A07AC00702D0E0208DF800002068B5
:103B50006B460122017960680078FFF7EBFC0028D2
:103B600057D1607C18B102208DF8000001E08DF87B
:103B7000005020686B460122C17B60680078FFF727
:103B8000D9FC38BB8DF8005020686B460122417982
:103B90006068007839E0FFE704208DF800002068B5
:103BA0006B460122017960680078FFF7C3FC88B991
:103BB000A07C80B9A07AC0070DD060208DF80000ED
:103BC00020686B460122017960680078FFF7B2FC3B
:103BD00000B902E01DE04020F0E7607C18B1012050
:103BE0008DF8000001E08DF8005020686B4601223E
:103BF000C17B60680078FFF79DFC50B92068064BD8
:103C000001224179606810330078FFF793FC0028A7
:103C100000D03046F8BD0000380000202DE9F04704
:103C2000394C82468AB094F824000F4620B1002017
:103C300000F00EF9012600E0002607A8FFF732FD8C
:103C400006A8FFF7EFFC09A8FFF766FD08A8FFF735
:103C50007FFD94F80A9094F81080002500223946E0
:103C60005046FFF761FA10B16D1C022DF6DB022DF4
:103C70001AD00025012203A96846FFF755FA10B1B2
:103C80006D1C022DF6DB022D0ED003A93846FEF77F
:103C9000F5F9C7B269465046FFF7D0FB10F0FF0FA9
:103CA0004FF0000502D002E0002503E001250FB926
:103CB00045F00205FF2020726072E0724FF6FF713E
:103CC000E181A072207401202073BDF81C0000F077
:103CD000FBF89DF8180000F019F8BDF8240000F07A
:103CE0005BF9BDF8200000F08DF9484600F0CAF9F4
:103CF0004046FFF76DFC16B1012000F0A9F80AB0AC
:103D00002846BDE8F08700003800002038B5184C80
:103D10004FF0FF35A17A19B3022806D0042806D047
:103D200008280ED010281BD10DE0002000E008204C
:103D30008DF80000607A9DF80010B0EBD10F04D030
:103D400005E01020F4E71820F2E7002038BD2068D5
:103D50006B460122C17960680078FFF7EBFB08B180
:103D6000284638BD9DF80000C0086072EDE70000ED
:103D700038000020F8B5354C0546A07CA84201D19A
:103D80000020F8BD31484FF0FF366B46D0E90010F7
:103D90004FF001020979007835B3FFF7B9FB70BB2A
:103DA0009DF800006B4620F020008DF80000206890
:103DB0000122017960680078FFF7BCFBF8B90320A5
:103DC000FCF7E0FB02208DF8000094F8220078B3A5
:103DD00082202BE020686B460122017D606800781C
:103DE000FFF7A8FB58B92EE0FFF792FB38B9A07A8D
:103DF000C0079DF8000003D040F0200002E00CE076
:103E000020F020008DF8000020686B460122017927
:103E100060680078FFF78EFB08B13046F8BD0320DC
:103E2000FCF7B0FB94F8220000B180208DF8000070
:103E300094F823000028CDD09DF8000040F0300019
:103E40008DF80000C6E7A5749AE70000380000204E
:103E500038B51C4C94F8241081421DD0002500B3C5
:103E600094F82500D0B1002000F0D0F90020FFF731
:103E700081FFE08C00F0C6F88DF8005060686B465A
:103E8000012200782321FFF755FB012084F824004C
:103E900000F0BCF9FFF71AFE002038BD4FF0FF30EC
:103EA00038BD002000F0B2F9207C8DF80000606879
:103EB0006B46012200782321FFF73CFB84F8245055
:103EC000E8E700003800002038B5194C4FF0FF3506
:103ED000A17A31B3FA2809D0B0F5FA7F08D0B0F54D
:103EE0007A7F0FD0B0F5FA6F1BD10DE0002000E013
:103EF00008208DF80000207A9DF80010B0EBD10F5B
:103F000004D005E01020F4E71820F2E7002038BDC7
:103F100020686B460122817960680078FFF70AFB10
:103F200008B1284638BD9DF80000C0082072EDE7B2
:103F30003800002038B5174C054694F82300A842F5
:103F400001D1002038BD0DB1302000E000208DF8F7
:103F50000000A07C28B19DF8000040F002008DF820
:103F6000000094F8220028B19DF8000040F0800085
:103F70008DF8000020686B460122017D60680078A2
:103F8000FFF7D8FA10B14FF0FF3038BD84F8235056
:103F9000D7E700003800002038B5194C4FF0FF3546
:103FA000A17A31B3BC2801D3012010E0622801D3EB
:103FB00002200CE02A2801D3032008E0142801D3B2
:103FC000042004E00A2801D3052000E006208DF833
:103FD0000000E07A9DF80010884201D1002038BD31
:103FE00020686B460122817860680078FFF7A2FAAA
:103FF00008B1284638BD9DF80000E072EEE70000E9
:1040000038000020F8B51E4D04464FF0FF37A87A5F
:1040100048B395F8240030BB287D4FF47A7648B138
:1040200064B1282C03D8E0B2FFF782FC26E0002020
:10403000FFF77EFC042C05D2042406E00020FFF7E5
:1040400077FCF9E7B44200D93446B6FBF4F0401EE1
:104050008DF8000028686B46012241786868007876
:10406000FFF768FA08B13846F8BD9DF80000401C1B
:10407000B6FBF0F0E8814008FFF78EFF0020F8BDA6
:1040800038000020F8B5054610F0700F4FF000061C
:1040900001D0012004E015B18DF8006002E040205D
:1040A0008DF80000244C6B4601222068817C6068FA
:1040B0000078FFF73FFA4FF0FF3760BB9DF8000034
:1040C00020F0400020738DF80060680602D40420C0
:1040D0008DF80000A80605D49DF8000040F002000D
:1040E0008DF80000E80605D49DF8000040F00100BE
:1040F0008DF80000280705D49DF8000040F0380036
:104100008DF8000020686B460122C17C6068007851
:10411000FFF710FA10B1A6723846F8BD25B1082D88
:1041200002D00020FFF706FFA57226753220FCF7AB
:1041300029FA0020F8BD000038000020F8B516006C
:104140000D464FF0FF371FD0104CA17AE1B1010AA4
:104150008DF80010C0B28DF80100411960684289E5
:10416000914211D8216800786B46097E0222FFF740
:10417000E1F948B92068EAB23346417D60680078C9
:10418000FFF7D8F9002800D03846F8BD38000020E5
:10419000704710B588B0694604A8FFF73FFD0328B3
:1041A00032D107A8FFF798FA049800F087FF079923
:1041B0000C4600F0AFFF00F045FF0490059800F0BA
:1041C0007DFF214600F0A6FF00F03CFF0590069819
:1041D00000F074FF214600F09DFF00F033FF0690D1
:1041E00004A8FEF741FD03A8FFF73AFABDF80C005A
:1041F0000099414300910199414301910299414342
:1042000068460291FEF792FC08B010BDF8B5144C58
:104210000146224694F82460D2E9000200235D1E84
:1042200056B179B1022111E0C17B10786B460122B1
:10423000FFF780F968B90EE0A67A56B111B1617C3A
:1042400061B902E08DF80030EEE701218DF8001031
:10425000EAE72846F8BD9DF8000060740020F8BD2C
:10426000380000202DE9F04106460F4600F0C4FB5F
:10427000041E0D4618BF0120284320F00040C0F165
:104280007F6000F1E040C00F0ED0301C18BF01204D
:10429000384320F00040C0F17F6000F1E040C00FE3
:1042A00004BF0120FCF7B0F820462946BDE8F081A4
:1042B00021F00042A2F16052B2F5801F01F00043EC
:1042C00028BFD2F17F6C0BD95FEA001C43EAC2021F
:1042D00042EB507018BF704728BF20F001007047B4
:1042E000B2F5801FBCBF184670474FEA410C1CF561
:1042F000001F02D2084600F0D4BF70B500F01CFBCE
:1043000000000089FFF7F6BF4FF00040A0F58000E5
:104310007047000010B591EA030F48BF83F00043D7
:1043200000F15884841A71EB030C05D2121943EB87
:104330000C03001B61EB0C01DFF824E14FEA115480
:10434000A4EB135C1EEA430F18BF9EEA445F73D0D0
:1043500023EA0E03DCF1200E21EA045143F480131A
:1043600032D322FA0CFE10EB0E0023FA0CFE41EBC6
:104370000E01CCF1200E03FA0EFE10EB0E0051F1EF
:104380000001B1F5801FCCF1200E32D201EB0451B7
:1043900012FA0EF2BDE8104058BF7047401C38BFFB
:1043A0005FEA420218BF7047002814BF20F00100E6
:1043B00041F100014FEA410313F5001F38BF704778
:1043C000A1F1C04100F006BB012A43EB0302ACF1AE
:1043D000200CDCF11F0E32BF4FF0000E23FA0CF35D
:1043E00010EB030041EB0451B4EB115FD0D0A1EB13
:1043F000045101F5801149085FEA300001EB0451D6
:104400000ED350F1000038BF12FA0EFE08D1BDE8FD
:104410001040C9E7401C38BF5FEA4202CAD1C3E777
:10442000BDE810404FEA410313F5001F38BF704745
:10443000A1F1C04100F0CEBA9EEA445F08D011EA73
:104440005E0FBDE8104004BF01F00041002070473E
:10445000BDE8104070B500F06FFA00BF64FBBE3ECF
:104460000000E0FF02494FF0000000F094BF00BFE1
:104470000000F87F491058BFC1F140415B1058BFA0
:10448000C3F140438B42EFF3008070472DE9C041F8
:1044900030B4DFF8A0C23CEA111418BF3CEA131490
:1044A00000F0EC8081EA03051CEA111444EAD5749B
:1044B00018BF1CEA131500F0C780A4EB05044FF0E9
:1044C000004545EAC12145EAC32341EA505143EA88
:1044D000525304F17F74994204F500344FEAC0202E
:1044E0004FEAC22208BF904200F09C804FEA136559
:1044F0000FF24016765D4FEA134506FB05F7C7F14C
:10450000807706FB07F74FEAD737A7FB03687642A9
:10451000C8F58038A7FB06CE38BFA8F1010807FB15
:1045200008E64FF0000EA6FB028CE6FB03CEDCF1A2
:10453000000CCEF1004E38BFAEF1010EA6FB0C58B8
:104540004FF000074FF00005E6FB0E87A1FB08C601
:10455000A0FB07CE16EB0E0645F10005E1FB076553
:1045600015F1E04E7EBFA4F580345FEA46066D414A
:1045700016F1800745F100054FEA17274FEA066656
:1045800047EA0567A6F1DE46B6F1805F4FEA1525DA
:104590001FD9384624F0010C05EBC471BCF1FE6F45
:1045A00001EB0C1102D8F0BCBDE8008124425CBFD5
:1045B00001F5801E9EEAC47F02D4F0BCBDE80081F4
:1045C000244238D4F0BCA1F1C041BDE8004100F064
:1045D00001BA4FEAD22242EA43524FEAD323A7FB61
:1045E00002864FEAD02040EA415007FB03661EEAEC
:1045F0000E0F4FEAD12105FB026658BFA6EB00560D
:10460000B6EB00564FEA520E4EEAC37E18EB0E0E82
:1046100056EB530EBDD518EB02085E417F1C55F1D9
:104620000005B6E74FF480154FF000074FF0000685
:104630004FF00008ADE7F0BC4FF0000001F1C041C1
:1046400001F00041BDE8008111EA0C1F0CEA1315CE
:1046500000D00CE013EA0C1F00F025804FF00000A2
:10466000F0BC81EA030101F00041BDE80081F0BC2B
:10467000BDE8004181EA030100F0ACB9F0BCBDE83F
:10468000004170B500F058F9097EFC3E00F007B813
:1046900081EA03014FF0000001F00041704781EA18
:1046A000030100F097B9F0BCBDE800414FF00000F5
:1046B00021497047FFFDFBF9F7F5F4F2F0EEEDEB61
:1046C000E9E8E6E4E3E1E0DEDDDBDAD8D7D5D4D310
:1046D000D1D0CFCDCCCBCAC8C7C6C5C4C2C1C0BF5C
:1046E000BEBDBCBBBAB9B8B7B6B5B4B3B2B1B0AF62
:1046F000AEADACABAAA9A8A8A7A6A5A4A3A3A2A146
:10470000A09F9F9E9D9C9C9B9A9999989797969500
:1047100095949393929191908F8F8E8E8D8C8C8B9C
:104720008B8A898988888787868585848483838224
:10473000828181800000FF070000F87F51EA030CAE
:1047400017D41CF5801F58BFBCF5801F00F10680F0
:10475000994218BF704708BF9042704707D711F5BC
:10476000801F58BF13F5801F19D4994270478942A2
:1047700070471CF5801F08D5BCF5801FF7D58B420C
:1047800018BF704708BF824270474FF4001C1CEBF3
:10479000410F38BF1CEB430F01D28B42704770B5FD
:1047A00000F0CAF8922449004FF000514FF08053B6
:1047B000FFF760BE10F0004248BF4042B0FA80F3FD
:1047C00010FA03F10AD0C3F11D0303F580634FEA29
:1047D000415002EB035202EBD12170474FF0000031
:1047E00070470000DFF848C170B51CEA111E1EBFFB
:1047F0001CEA13159EEA0C0F95EA0C0F00F06F806F
:1048000081EA030423EA4C134EEAD47E21EA4C11D8
:1048100041F4801143F48013AE44A1FB024CA0FB91
:104820000365AEF17F7E361955EB0C05A1FB034CF9
:104830004CF10003A0FB021C16EB0C06654153F182
:104840000003094218BF46F0010613F4007F0BD1A4
:104850004FEA03314FEA0530340341EA155140EA8B
:1048600016506FF003020AE04FEAC3214FEAC52059
:10487000F40241EA555140EA56506FF0020202EB51
:104880002E4201EB025585EACE710AD05FEA440C54
:1048900018BF24F0004450F1000041F1000120EA6B
:1048A000D47040F2FE7C624500D270BDA84214BFB5
:1048B0004FF080444FF04044002E08BF0024BEF16A
:1048C000806FA8BFA1F1C041BDE8704080F2828036
:1048D0004FF0000001F1C04101F0004170479EEA35
:1048E0000C0F0CEA131518BF95EA0C0F06D04FF009
:1048F000000081EA030E0EF0004170BD00F01CF8CC
:104900008900013E00F007B800F009B84FEA430CF7
:104910005FEA5C5C08D081EA030100F05BB84FEA13
:10492000410C5FEA5C5CF6D14FF000000149704732
:104930000000FF070000F87F0EF1020E2EF0030EBC
:104940005EF8046B364205D4012A43EB030515F5E6
:10495000001F12D8012841EB010C1CF5001F0CD8D8
:104960000ED14FEAD17C15F5001F0CEB4C0C0CF16D
:10497000020C08BF4CEBD37C04E04FF0080C01E0C4
:104980004FEAD37C0CEB4C0526FA05F606F0070639
:10499000B6F1040C06D20EEB860CBDE870404CF06C
:1049A000010C6047DFE80CF0090B02024FF00041F8
:1049B0004FF00000A1F5002170BD194610460128F6
:1049C00051EB010418BFD4F5001484BF002001F09E
:1049D000004170BD0808A0F500114FEA3101704791
:1049E00091EA030F10B581F000413FF59BAC83F0D5
:1049F000004300F0EFB800002DE9F04101F5801C04
:104A0000BCF5001FC0F2C3804FEA115C21EA0C51D3
:104A10000CF1FD0C41F480115FEA5C0C0CF5C07CDC
:104A200001D3400049413DA4890241EA90518702E7
:104A30008E0E0A0CA45D04FB04F602FB06F6C6F11A
:104A40004046A4FB0662F60D46EA422606FB06F443
:104A5000A4FB01235242C3F1404338BF5B1EA6FBB7
:104A600002420024E6FB0324D20B42EA4446A6FBA2
:104A70000623A1FB02E2A3FB07E4A4184FF0000207
:104A800052F10002E3FB01426442C2F1404E38BFE2
:104A9000AEF1010EA6FB04234FF00002E6FB0E323E
:104AA000A2FB03464FF00004B61954F10004E2FBE8
:104AB0000264A1FB06E6A4FB07E816EB08064FF02C
:104AC000000858F10008E4FB01687642C8F140583C
:104AD00038BFA8F10108A2FB06E4A3FB08E52D19E5
:104AE0004FF0000454F10004E2FB0854A1FB05E67A
:104AF000A7FB04E818EB06084FF0000656F1000685
:104B0000E1FB048618F1200556F10006A809A8F17A
:104B10001B08B10908F03F08B8F10A0F40EA8660A7
:104B20001CD901EB0C51BDE8F08100BFFCF5EEE8AB
:104B3000E2DDD8D3CFCBC7C3C0BDB9B6B4B1AEAC3C
:104B4000A9A7A5A3A19F9D9B9A9896959392908FB4
:104B50008D8C8B898887868584838281A0FB006801
:104B600000FB01F208EB4208B8EB872807D53418A0
:104B700058EB0104D5D5401C51F10001D1E7341A9E
:104B800078EB0104CDD4401E71F10001C9E75FEA62
:104B90004C0C5FEA9C5C0DD105D34FF0000001F096
:104BA0000041BDE8F081BDE8F04170B5FFF7C4FEFB
:104BB0006DDBFFBEBDE8F0414FF0000000497047DB
:104BC0000000F87F10B591EA030F48BF83F000435F
:104BD0003FF5A8AB841A71EB030C07D212198CF0C5
:104BE000004C43EB0C03001B61EB0C01DFF8A4E16C
:104BF0004FEA1154A4EB135C1EEA430F18BF9EEA60
:104C0000445F00F0B08023EA6E03524221EA04516F
:104C1000C3EB6E0338BF5B1EDCF1200E25D322FAF6
:104C20000CFE10EB0E0043FA0CFE41EB0E01CCF132
:104C3000200E03FA0EFE10EB0E0051F10001CCF134
:104C4000200E29D412FA0EF201EB0451BDE81040F7
:104C500058BF7047401C1CBFB2F1004F704700287E
:104C60000CBF491C20F00100704712EB020E43EB11
:104C7000030218BF4FF0010E4EEA4202ACF1200CC5
:104C8000DCF11E0E54D943FA0CFE10EB0E0051F16C
:104C9000FF31CCF11E0ED5D50EF1010E12FA0EFE2B
:104CA000404141EB010101EB445C5FEA5C5C10D9DF
:104CB00010EBDE7001EB045138BFBEF1004FBDE8D0
:104CC000104018BF704700280CBF491C20F001009D
:104CD000704730D24FEAD42C11F5001124F400644F
:104CE0001BD0B1FA81F20B3AA41AA41ED2F1200310
:104CF000914030FA03F31943904001EBCC71002C42
:104D000001EB0451BDE81040A8BF704701F1C0415C
:104D10004FF0000001F000417047B0FA80F310FA44
:104D200003F100D110BDE41A173C4805C90AE4E7B5
:104D300001EB045110BD491001EB0451BDE81040D6
:104D40004FEA300002E04FF0000170474A0008BF10
:104D50000042F8D0B2F5001F28BF704701F00041B3
:104D60004FF0000070479EEA445F07D011EA5E0FE3
:104D7000BDE8104004BF002100207047BDE810408E
:104D800070B5FFF7D9FD00BF40DFF63E83F000416C
:104D9000104670470000E0FF43004FEAD30C4FEA93
:104DA0003C0C43401FBF40070CF1605113F0FE4F15
:104DB00070471CF0006F03D100200CF000417047D9
:104DC0000CF0004343EA507010B540EACC0000F00C
:104DD00022FA00BF000000924FEA0001FFF7FABD7F
:104DE0004FF000414FF00000A1F500217047000096
:104DF00090EA010F48BF81F0004100F15E82421A43
:104E00003CBF801A89184FEAD0524FF07F4C1CEA01
:104E1000410FA2EBD15318BF9CEA026F00F03B8018
:104E20004FF0004C4CEA00204CEA012121FA03FC2F
:104E300010EB0C0C1ED202F1FF325FEA1C2040EB9B
:104E4000C25038BF70471CF07F0F4FEA400C18BFAC
:104E5000BCF17F4F38BF7047C3F12003994008BFB2
:104E600020F00100BCF17F4F38BF7047A0F1C04077
:104E700000F017BA4FEA3C00000A40EBC25028BFCE
:104E80001CF0FF0F4FEA400CE6D018BFBCF17F4F7B
:104E900038BF7047EAE79CEA026F05D010EA5C0F62
:104EA00008BF00F00040704710B500F0B4F900BF33
:104EB00064FBBE3E014800F06EBA00BF0000C07F38
:104EC0004FF47F0C1CEAD0121EBF1CEAD11392EAE9
:104ED0000C0F93EA0C0F00F0858090EA010F48BF99
:104EE00042F4807240F4000C41F400002CF07F4149
:104EF00020F07F4000B58142A2EB03020FF2081CB4
:104F0000ACEB504EC0F100009EF800E04FEA4E0EB0
:104F100000FB0EFC38BF49004FEA2C1C02F5FA02D8
:104F20000CFB0EF34FEACE1E4FEA112C4FEAC121C3
:104F30000EEB635E42EB22420EFB0CFC4FEA1C536D
:104F400000FB03114FEA112C4FEA01310EFB0CFC60
:104F50004FEADC4C00FB0C11C14228BF09184CEB96
:104F600003335DF804EB10EB410143EBC250B2F5A3
:104F70007C0F38BF704729D512F0F00F1CBF00F12D
:104F8000C04000F00040704700818283848586879E
:104F900088898B8C8D8E8F919293959697999A9CF8
:104FA0009D9FA0A2A3A5A7A8AAACAEB0B2B3B5B767
:104FB000B9BCBEC0C2C5C7C9CCCED1D4D7D9DCDF3D
:104FC000E2E6E9ECF0F3F7FAFE0000004FEA400CED
:104FD0000CF1807CBCF17E4F28BF7047B0F1C0401F
:104FE00000F05FB990EA010F0CEAD11348BF42F418
:104FF0008072624538BF634507D213F47F0F16D025
:1050000080EA010000F00040704710B500F003F99D
:10501000097EFC3E00F005B880EA010000F0004087
:10502000704780EA010000F0004000F03AB912F445
:105030007F0F04BF0248704780EA010000F031B9D9
:105040000000C07F41000B0ED3F19E0208D950F43E
:1050500000034FEA032323FA02F048BF404270479F
:1050600010B500F0D8F800BF4992248000207047A6
:105070006FF0004282EA200070470000C10DD1F1BC
:105080009E0206DB4FEA002343F0004323FA02F0BE
:105090007047004207D54FEA4001B1F1FE4F02D2FE
:1050A0004FF00000704710B500F0B5F84992248029
:1050B000002070476FEA20007047000010F00041A8
:1050C00048BF4042B0FA80F310FA03F2C3F19D03E7
:1050D0000BD051EAC35101EB1220530638BF704781
:1050E00000F1010008BF20F001007047B0FA80F322
:1050F00010FA03F2C3F19D030AD0D90501EB122087
:10510000530638BF704700F1010008BF20F00100CE
:10511000704700004FF47F0C1CEAD0121EBF1CEA3F
:10512000D11392EA0C0F93EA0C0F00F0478090EA3B
:10513000010F48BF42F480724FF0004C4CEA00204F
:105140004CEA012102EB0302A0FB0113A2F50002CD
:10515000002918BF43F001035B0028BF4FEA330367
:1051600042EB22425FEA132C4CEBC2502EBFBCEB49
:10517000436FB2F57C0F70474FEA036CBCF1004FF0
:1051800008BF20F00100B2F57C0F38BF70470BD587
:1051900082F0FF0212F5803FC8BF704700F1C040A7
:1051A000D8BF00F00040704700F5000C5FEA4C0CDF
:1051B00048BF7047B0F1C04000F073B890EA010FEB
:1051C0000CEAD11348BF42F48072624538BF634590
:1051D00004D280EA010000F00040704710B500F0F2
:1051E0001AF800BF8900013E00F007B800F009B8C6
:1051F0005FEA410C5FEA1C6C08D080EA010000F015
:1052000050B85FEA400C5FEA1C6CF6D14FF00040EA
:10521000A0F5800070470EF1020E2EF0030E5EF82E
:10522000044B244204D44FEA4102B2F17F4F11D81B
:105230004FEA4003B3F17F4F0CD80ED14FEAD07C38
:10524000B2F17F4F0CEB4C0C0CF1020C08BF4CEB95
:10525000D17C04E04FF0080C01E04FEAD17C0CEB6C
:105260004C0324FA03F404F00704B4F1040C06D24E
:105270000EEB840CBDE810404CF0010C6047DFE8F9
:105280000CF0070802024FF00040A0F5800010BDAE
:105290000846420018BFD2F1807288BF00F000407B
:1052A00010BDFF2141EAD050C005704790EA010FC0
:1052B00048BF81F000413FF5A2AD421A04D882F008
:1052C0000042A0EB020011444FEAD0524FF07F4C55
:1052D0001CEA410FA2EBD15318BF9CEA026F4AD0DF
:1052E0004FF0004C4CEA00204CEA012121FA03FC6B
:1052F000B0EB0C0C0FD412F0FE0F36D05FEA4C006E
:105300001DD5001240EBC25038BF70471CF03F0F54
:1053100018BF70470BE0A2F101025FEA1C2040EBCE
:10532000C25038BF70471CF07F0F18BF7047C3F1E1
:105330002003994014BF401E20F0010070478008F0
:105340004FEA122308BF7047B0FA80FCA2EB0C02B0
:10535000CCF1280C60FA0CF093EA122F04BF00EB9A
:10536000C25070474FEAC3707047130A5FEADC10FF
:1053700008BF7047F6E79CEA026F04D010EA5C0FA2
:1053800008BF0020704710B5FFF745FF40DFF63E2D
:1053900081F0004070470CF00F03092B08BF082074
:1053A00000F07F800A2B0BD0082B18BF704708BF76
:1053B0001CF0400F0AD04FF000004FF00001704782
:1053C0001CF0400F18BF4FF0004070471CF0100F4A
:1053D00008D020F0704300F07F4242EAD3014FEA48
:1053E0004370704700F0604021F07F4242EA0002C3
:1053F00001F07F4040EA727070474FF0FF0C4CF4B0
:10540000E06C1CEA11531CBF9CEA030C9445C2BF1C
:10541000DA4201EB02517047002B0DD0BCF1000FB6
:105420000FD0002A01F00041A4BF41F0E04141F05B
:105430007F614FF00000704701F000414FF0000025
:10544000704750EA01334FF09B0C18BF4CF0806C52
:105450007FF408A870474FF0FF0212EAD0521CBF39
:1054600092F0FF038B42C2BFD14200EBC1507047A4
:10547000002A0AD0002B0BD0002900F00040A4BF66
:1054800040F0FE4040F40000704700F000407047DC
:1054900043024FF00B0C18BF4CF0806C7FF40AAD48
:1054A00070471CF4801F11D01CF4E02F03D06FEA6A
:1054B000CC31490070474FF04050EFF3008222F0AA
:1054C000704242EA000282F3008870474FF0000009
:1054D00070476800000476005401F7FD000175195B
:1054E0001A0C6A231B1C1F207274433B4138393A43
:1054F0006B6C376F06246D6E700000008300000037
:1055000000080000000100183200050000002041E2
:105510000000D242295C0F3E9A99993E3333733F83
:10552000295C0F3E00007000000000240000000213
:105530000003000000650054FFEF0000FA80000B3C
:1055400012820001030C30C30E8C8CE914D540028A
:1055500013710F8E3883F8833000F883258EF8831B
:105560003000F883FFFFFFFF0FFEA9D624000400E0
:105570001A8279A10000003CFFFF0000001000002B
:1055800038836FA2003E03304000000002CAE309E6
:105590003E800000200000000000000040000000ED
:1055A00060000000000C0000000C186E0000069265
:1055B0000A16C0DFFFFF0256FD8CD377FFE1C496C9
:1055C000E0C5BEAA00000000FFFF0B2B000016572D
:1055D000000003594000000000001DFA00026C1D8D
:1055E000000000003FFFDFEB003EB3B6000D227865
:1055F00000002F3C00000000001942B5000039A255
:105600000000B365D90E9FC91DCF4C343000000097
:10561000500000003BB67AE80064000000C80000BB
:1056200000000000100000001000FA921000225E3E
:10563000000D229F0001000000320000FF46000024
:1056400063D400001000000004D6000004CC000069
:1056500004CC0000000010720000004000000000B8
:105660000000000000060002000500070000000026
:105670000064000000000000000000050005006458
:1056800000200000000000000000000000004000BA
:105690000000030000000032F8980000FF650000E1
:1056A000830F0000FF9BFC000000000000000000D2
:1056B00000000000000000000000000000000000EA
:1056C00000000000000000000000000000000000DA
:1056D0000000100040000000000000060000B26A58
:1056E000000200000001FB830068000000D9FC00FC
:1056F0007CF1FF830000000000650000006403E807
:1057000000640028000000250000000016A0000032
:105710000000100000001000002F0000000001F445
:105720000000100000280000FFFF4581FFFFFA7213
:105730000000000000000000004400050005BAC69B
:10574000004778A2000000010000000000000600F1
:10575000000000140000254D002F706D000005AE04
:10576000000C02D00000000000000000000000005B
:1057700000000000001B000000000000000000000E
:1057800000000000006400000008000000000000AD
:105790000000000000000000000000000000000009
:1057A00000000000000000000000000000000000F9
:1057B00000000000000000000000000000000000E9
:1057C00000000000000000000000000000000000D9
:1057D00000000000000000000000000000000000C9
:1057E00000000000001B000000000000000000009E
:1057F000000E000E00000AC7000400000000003286
:10580000FFFFFF9C00000B2B0000000200000001C6
:1058100000000064FFE50000000000000000000040
:105820000000000000000001000000000001000076
:1058300000000000000180000001800000018000E5
:10584000002426D300000000000000000006001025
:105850000096003C00000000000000000000000076
:10586000000000000C0A4E68CDCF7709501667592A
:10587000C619CE82000000000000000000000000F9
:1058800000000000000000000000000017D78400A6
:10589000030000000000000000000000C7938F9D7F
:1058A0001E1B1C190000000000000000000000008A
:1058B0000000000000000000000000000203188546
:1058C0000000400000000003000000030000000092
:1058D0000000000040000000000000000000000088
:1058E00000000000000000000000000000000000B8
:1058F00000000000000000000000000000000000A8
:105900000000000000000000677DDF7E72902E55D1
:105910004CF6E688000000000000000000000000D7
:1059200000000000D8DCB4B8B0D8B9ABF3F8FAB3D3
:10593000B7BB8E9EAEF132F51BF1B4B8B08097F1D3
:10594000A9DFDFDFAADFDFDFF2AAC5CDC7A90CC957
:105950002C97F1A989264666B28999A92D557DB063
:10596000B08AA896365676F1BAA3B4B280C0B8A869
:105970009711B28398BAA3F0240844106418B2B9FE
:10598000B49883F1A329557DBAB5B1A38393F000F0
:105990002850F5B2B6AA839328547CF1B9A3829318
:1059A00061BAA2DADEDFDB819AB9AEF5606870F128
:1059B000DABAA2DFD9BAA2FAB9A38292DB31BAA2CB
:1059C000D9BAA2F8DF85A4D0C1BBAD83C2C5C7B820
:1059D000A2DFDFDFBAA0DFDFDFD8D8F1B8AAB38D4E
:1059E000B4980D355DB2B6BAAF8C96198F9FA70EDD
:1059F000161EB49AB8AA872C547CBAA4B08AB69161
:105A0000325676B28494A4C808CDD8B8B4B0F1990F
:105A100082A82D557D98A80E161EA22C547C92A407
:105A2000F02C5078F184A898C4CDFCD80DDBA8FCEC
:105A30002DF3D9BAA6F8DABAA6DED8BAB2B68696E7
:105A4000A6D0F3C841DAA6C8F8D8B0B4B882A892F4
:105A5000F52C548898F135D9F418D8F1A2D0F8F97A
:105A6000A884D9C7DFF8F883C5DADF69DF83C1D836
:105A7000F40114F1A8824EA884F311D182F5D992D1
:105A8000289788F109F41C1CD884A8F3C0F9D1D94F
:105A90009782F129F40DD8F3F9F9D1D982F4C20330
:105AA000D8DEDF1AD8F1A2FAF9A88498D9C7DFF8AE
:105AB000F8F883C7DADF69DFF883C3D8F40114F19B
:105AC00098A8822EA884F311D182F5D99250978894
:105AD000F109F41CD884A8F3C0F8F9D1D99782F160
